:0400000080EF00F09D
:100100007F9C7F8E0BECFFF043ECFFF088EF00F05C
:10011000F00E036E010E026EF00E016E010E006E07
:10012000CEECFEF004C001F005C002F006C003F002
:0801300007C004F0EDD7120036
:020000040001F9
:10FD9C0001510303F4CF06F0F3CF07F00051020337
:10FDAC00F4CF04F0F3CF05F001510203F350062712
:10FDBC00F4500523E86A042300510303F35006278B
:10FDCC00F4500523E86A04231200136E133A0F0E45
:10FDDC001314146EF00E131606ECFFF01200136ED3
:10FDEC000000000000000000000000000000000007
:10FDFC00000000000000000000001306F1E21200F9
:10FE0C00000E1306145AFDE21200000E956E12003D
:10FE1C00010E836E0A0EF5ECFEF0000E836E0A0ED8
:10FE2C00F5ECFEF0F5D71200060E1103DE0EF326EC
:10FE3C00010EF422F4CF0DF0F3CF0EF0120012C02D
:10FE4C0087FF1200320E106E010E836E3BECFFF03A
:10FE5C000E50F5ECFEF0000E836E3BECFFF00E50F6
:10FE6C00F5ECFEF0102EF0D712000DC00FF0400E86
:10FE7C00EBECFEF00F2EFBD71200000E976E000E6F
:10FE8C00996E1200000E966E010E846E010EEBEC54
:10FE9C00FEF0000E846E010E966EBC0EEBECFEF0C6
:10FEAC0069ECFFF0000E9A6E010E886E010EEBEC01
:10FEBC00FEF0000E886E010E9A6EBC0EEBECFEF09E
:10FECC0076ECFFF01200000E116E11C085FF114E82
:10FEDC001200020EEBECFEF0000E8462F6D712005C
:10FEEC00000E126E124E1200020EEBECFEF0000E23
:10FEFC008862F8D712008A6AC00E936E280EEAEC5C
:10FF0C00FFF0300EB9ECFFF00A0EF1ECFFF0280E0A
:10FF1C00B9ECFFF00A0EF1ECFFF0280EB9ECFFF093
:10FF2C000A0EF1ECFFF00F0EB9ECFFF00A0EF1EC3B
:10FF3C00FFF0010EB9ECFFF0020EEAECFFF0060E3A
:10FF4C00B9ECFFF00A0EF1ECFFF01200B9ECFFF087
:10FF5C00020EEAECFFF012000C6EDE50C7ECFFF064
:10FF6C000C2EFBD712000B6E0B380F0B8A6E8A9877
:10FF7C00D8ECFFF00B500F0B8A6E8A98D8ECFFF080
:10FF8C0012000B6E0B380F0B8A6E8A88D8ECFFF0C0
:10FF9C000B500F0B8A6E8A88D8ECFFF00A0EF1EC2E
:10FFAC00FFF0120000000000000000000000000044
:10FFBC00000000008A8A0000000000000000000021
:10FFCC00000000008A9A12000A6EFA0EF1ECFFF0A3
:10FFDC000A2EFBD71200086E083A0F0E0814096E91
:10FFEC00F00E0816FBECFFF01200000E0806095A82
:04FFFC00FDE2120010
:020000040030CA
:0700000015137F00B98B917D
:06000800FFC0FFE0FF4015
:00000001FF
