:0400000080EF00F09D
:100100007F9C7F8E0FECFFF04DECFFF088EF00F04E
:060110001EECFFF01200DE
:020000040001F9
:10FE1E00000E956E1200010E836E0A0E37ECFFF087
:10FE2E00000E836E0A0E37ECFFF0F5D71200F46A5F
:10FE3E00F36A380E016E060E0103DE0EF326010E76
:10FE4E00F422F3CF07F0F4CF06F01200056E053A58
:10FE5E000F0E0514066EF00E051648ECFFF012009C
:10FE6E00056E000000000000000000000000000011
:10FE7E000000000000000000000000000506F1E296
:10FE8E001200000E0506065AFDE21200000E976ED5
:10FE9E00000E996E000E966E000E9A6E010E846E16
:10FEAE00010E886E010E2DECFFF0000E846E000E1A
:10FEBE00886E010E966E010E9A6E69ECFFF075EC6F
:10FECE00FFF01200000E006E00C085FF002A060E25
:10FEDE002DECFFF0000E8462F7D71200000E016EBB
:10FEEE0001C087FF012A060E2DECFFF0000E88627E
:10FEFE00F7D712008A6AC00E936E280EEAECFFF056
:10FF0E00300EB9ECFFF00A0EF1ECFFF0280EB9EC52
:10FF1E00FFF00A0EF1ECFFF0280EB9ECFFF00A0E1E
:10FF2E00F1ECFFF00F0EB9ECFFF00A0EF1ECFFF062
:10FF3E00010EB9ECFFF0020EEAECFFF0060EB9EC82
:10FF4E00FFF00A0EF1ECFFF01200B9ECFFF0020E1A
:10FF5E00EAECFFF01200046EDE50C7ECFFF0042E48
:10FF6E00FBD71200036E03380F0B8A6E8A98D8ECFB
:10FF7E00FFF003500F0B8A6E8A98D8ECFFF0120038
:10FF8E00036E03380F0B8A6E8A88D8ECFFF003508D
:10FF9E000F0B8A6E8A88D8ECFFF00A0EF1ECFFF098
:10FFAE001200000000000000000000000000000031
:10FFBE0000008A8A0000000000000000000000001F
:10FFCE0000008A9A1200026EFA0EF1ECFFF0022E79
:10FFDE00FBD71200006E003A0F0E0014016EF00EE9
:10FFEE000016FBECFFF01200000E0006015AFDE2B7
:02FFFE001200EF
:020000040030CA
:0700000015137F00B98B917D
:06000800FFC0FFE0FF4015
:00000001FF
