:0400000080EF00F09D
:100100007F9C7F8E1CECFFF04DECFFF0000E936E99
:100110008AEF00F051ECFFF02BECFFF000C081FF04
:0801200032ECFFF0F7D71200EA
:020000040001F9
:10FDF8000A6E0A3A0F0E0A140B6EF00E0A1617EC6A
:10FE0800FFF012000A6E0000000000000000000071
:10FE180000000000000000000000000000000000DA
:10FE28000A06F1E21200000E0A060B5AFDE2120061
:10FE3800000E956E1200010E836E0A0E06ECFFF09E
:10FE4800000E836E0A0E06ECFFF0F5D71200060EC0
:10FE58000003DE0EF326010EF4221200F4CF06F0A2
:10FE6800F3CF07F04E0E046E010E836E47ECFFF0E1
:10FE7800035006ECFFF0000E836E47ECFFF00350D2
:10FE880006ECFFF01200400EFCECFEF0022EFBD751
:10FE98001200000E976E000E996E000E966E000E00
:10FEA8009A6E010E846E010E886E010EFCECFEF057
:10FEB800000E846E000E886E010E966E010E9A6E0C
:10FEC80069ECFFF075ECFFF01200000E006E00C048
:10FED80085FF002A060EFCECFEF0000E8462F7D7C0
:10FEE8001200000E016E01C087FF012A060EFCEC0D
:10FEF800FEF0000E8862F7D712008A6AC00E936E71
:10FF0800280EEAECFFF0300EB9ECFFF00A0EF1EC27
:10FF1800FFF0280EB9ECFFF00A0EF1ECFFF0280E06
:10FF2800B9ECFFF00A0EF1ECFFF00F0EB9ECFFF0A0
:10FF38000A0EF1ECFFF0010EB9ECFFF0020EEAEC4C
:10FF4800FFF0060EB9ECFFF00A0EF1ECFFF012001C
:10FF5800B9ECFFF0020EEAECFFF01200096EDE5079
:10FF6800C7ECFFF0092EFBD71200086E08380F0BFC
:10FF78008A6E8A98D8ECFFF008500F0B8A6E8A9820
:10FF8800D8ECFFF01200086E08380F0B8A6E8A88CA
:10FF9800D8ECFFF008500F0B8A6E8A88D8ECFFF077
:10FFA8000A0EF1ECFFF01200000000000000000053
:10FFB80000000000000000008A8A00000000000025
:10FFC80000000000000000008A9A1200076EFA0E76
:10FFD800F1ECFFF0072EFBD71200056E053A0F0E65
:10FFE8000514066EF00E0516FBECFFF01200000E6D
:08FFF8000506065AFDE21200A5
:020000040030CA
:0700000015137F00B98B917D
:06000800FFC0FFE0FF4015
:00000001FF
