:0400000080EF00F09D
:100100007F9C7F8E0BECFFF043ECFFF088EF00F05C
:1001100048ECFFF01AECFFF025ECFFF028ECFFF0C4
:04012000F7D71200FB
:020000040001F9
:10FDD6000B6E0B3A0F0E0B140C6EF00E0B1606EC98
:10FDE600FFF012000B6E0000000000000000000093
:10FDF60000000000000000000000000000000000FD
:10FE06000B06F1E21200000E0B060C5AFDE2120080
:10FE1600000E956E1200010E836E0A0EF5ECFEF0D2
:10FE2600000E836E0A0EF5ECFEF0F5D71200060EF4
:10FE36000903DE0EF326010EF422F4CF05F0F3CF0C
:10FE460006F012000AC087FF1200320E086E010E7D
:10FE5600836E3BECFFF00650F5ECFEF0000E836E71
:10FE66003BECFFF00650F5ECFEF0082EF0D7120042
:10FE760005C007F0400EEBECFEF0072EFBD7120094
:10FE8600000E976E000E996E1200000E966E010E11
:10FE9600846E010EEBECFEF0000E846E010E966E83
:10FEA600BC0EEBECFEF069ECFFF0000E9A6E010E54
:10FEB600886E010EEBECFEF0000E886E010E9A6E57
:10FEC600BC0EEBECFEF076ECFFF01200000E096EB5
:10FED60009C085FF094E1200020EEBECFEF0000E83
:10FEE6008462F6D71200000E0A6E0A4E1200020E47
:10FEF600EBECFEF0000E8862F8D712008A6AC00E9C
:10FF0600936E280EEAECFFF0300EB9ECFFF00A0E05
:10FF1600F1ECFFF0280EB9ECFFF00A0EF1ECFFF061
:10FF2600280EB9ECFFF00A0EF1ECFFF00F0EB9EC5B
:10FF3600FFF00A0EF1ECFFF0010EB9ECFFF0020E35
:10FF4600EAECFFF0060EB9ECFFF00A0EF1ECFFF05A
:10FF56001200B9ECFFF0020EEAECFFF01200046E9C
:10FF6600DE50C7ECFFF0042EFBD71200036E0338F9
:10FF76000F0B8A6E8A98D8ECFFF003500F0B8A6E2F
:10FF86008A98D8ECFFF01200036E03380F0B8A6EC6
:10FF96008A88D8ECFFF003500F0B8A6E8A88D8EC5B
:10FFA600FFF00A0EF1ECFFF0120000000000000066
:10FFB600000000000000000000008A8A0000000027
:10FFC600000000000000000000008A9A1200026E85
:10FFD600FA0EF1ECFFF0022EFBD71200006E003A8B
:10FFE6000F0E0014016EF00E0016FBECFFF012006F
:0AFFF600000E0006015AFDE21200A1
:020000040030CA
:0700000015137F00B98B917D
:06000800FFC0FFE0FF4015
:00000001FF
