:0400000080EF00F09D
:040008006DEFFDF0AB
:100100007F9C7F8EBBECFEF089ECFDF0CCECFDF02B
:10011000000E976E968A7CECFDF08FEF00F08FEC6E
:10012000FDF0C9ECFEF04CECFFF0640E35ECFDF098
:04013000F6D71200EC
:020000040001F9
:10F9FC00506572696F643A200A004D6963726F74C6
:10FA0C006F6E65210A0050656E7461746F6E6521AE
:10FA1C000A00596F21436D616A6F72210A0001DE81
:10FA2C0001FA0238027E02CC02F6035303BC03F443
:10FA3C00047004FC059805ED06A70777077701DE2F
:10FA4C0001FA0238027E02CC02F6035303BC03F423
:10FA5C00047004FC059805ED06A707770777236E5D
:10FA6C00FA0E3CECFDF0232EFBD71200216E213A4E
:10FA7C000F0E2114226EF00E211657ECFDF0120021
:10FA8C00216E0000000000000000000000000000DB
:10FA9C000000000000000000000000002106F1E260
:10FAAC001200000E2106225AFDE21200040E6E6EA8
:10FABC00B698B798B8882C9F2C9D968ACD90CF6A13
:10FACC00CE6A570ECD6EB688F28EF28C1200B7A2AB
:10FADC001100B7928288829883CF27F0000E836240
:10FAEC00836A000E27641EC083FF1100310ECD6E99
:10FAFC002C930B0E776EE00E786E080E796EB68234
:10FB0C00F28EF28C1200000E976E000E9A6E000EA2
:10FB1C00996E000E966E010E846E010E3CECFDF09B
:10FB2C00000E846E010E966EBC0E3CECFDF0B4EC37
:10FB3C00FDF01FC01DF0000E9A6E010E886E010EB6
:10FB4C003CECFDF0000E886E010E9A6EBC0E3CEC87
:10FB5C00FDF0C0ECFDF020C01EF01200000E1F6E78
:10FB6C001FC085FF1F4E1200020E3CECFDF084B04E
:10FB7C00F7D71200500E206E20C087FF204E1200C7
:10FB8C00020E3CECFDF088B0F7D712007F9C7F8E04
:10FB9C002DECFEF0120029ECFEF004EE00F0010E4C
:10FBAC00F86EF90EF76EFC0EF66E0A0E246E21EC52
:10FBBC00FEF015ECFEF00C50ACECFEF00D50ACEC85
:10FBCC00FEF0120004EE00F0010EF86EFA0EF76E65
:10FBDC00060EF66E0B0E246E25ECFEF015ECFEF008
:10FBEC00120004EE00F0010EF86EFA0EF76E120E13
:10FBFC00F66E0B0E246E25ECFEF015ECFEF01200EA
:10FC0C0004EE00F0010EF86EFA0EF76E1E0EF66E94
:10FC1C000B0E246E25ECFEF015ECFEF01200090024
:10FC2C00F5CFEEFF242EFBD70B0EFF0F24EE00F0CA
:10FC3C005EECFEF01200000E58ECFEF01200C00E4E
:10FC4C0058ECFEF01200010E58ECFEF012008A6A1D
:10FC5C00C00E936E280E96ECFEF0300E65ECFEF0A6
:10FC6C000A0E9DECFEF0280E65ECFEF00A0E9DECE3
:10FC7C00FEF0280E65ECFEF00A0E9DECFEF00F0E69
:10FC8C0065ECFEF00A0E9DECFEF0010E65ECFEF04C
:10FC9C00020E96ECFEF0060E65ECFEF00A0E9DECE4
:10FCAC00FEF0120065ECFEF0020E96ECFEF0120077
:10FCBC001C6EDE5073ECFEF01C2EFBD712001B6E7C
:10FCCC001B380F0B8A6E8A9884ECFEF01B500F0BBE
:10FCDC008A6E8A9884ECFEF012001B6E1B380F0B98
:10FCEC008A6E8A8884ECFEF01B500F0B8A6E8A8811
:10FCFC0084ECFEF00A0E9DECFEF0120000000000F9
:10FD0C000000000000000000000000008A8A0000D3
:10FD1C000000000000000000000000008A9A1200A1
:10FD2C001A6EFA0E9DECFEF01A2EFBD71200186E0E
:10FD3C00183A0F0E1814196EF00E1816A7ECFEF0E8
:10FD4C001200000E1806195AFDE21200266E263813
:10FD5C00B1ECFEF026500F0B1B6E0A0E1B60070F4A
:10FD6C00260F1B2473ECFEF01200000E956E000E95
:10FD7C00136E000E146E000E936E030E946EFF0E37
:10FD8C001D6F1E6F120082A0DEECFEF082A0E8EC6C
:10FD9C00FDF082A0120082A2F0ECFEF082A206EC32
:10FDAC00FEF082A2120001ECFFF0F7ECFDF0120065
:10FDBC00060E1D03DE0EF326010EF422F4CF0EF018
:10FDCC00F3CF0FF01200010EF86EFA0EF76E2A0E3A
:10FDDC00F66E1200E9ECFEF01D3A0F0E1D161D44D6
:10FDEC00F626000EF722F8220900F5CF0EF00800D7
:10FDFC00F5CF0FF01200070E0E6E770E0F6EE90E98
:10FE0C001D611200060E0E6EA70E0F6ED20E1D6136
:10FE1C001200050E0E6EED0E0F6EBB0E1D61120064
:10FE2C00040E0E6EFC0E0F6EA40E1D611200040E5D
:10FE3C000E6E700E0F6E8D0E1D611200030E0E6E87
:10FE4C00BC0E0F6E760E1D611200030E0E6E530E5D
:10FE5C000F6E5F0E1D611200020E0E6EF60E0F6E0F
:10FE6C00480E1D611200020E0E6E7E0E0F6E310ECC
:10FE7C001D611200020E0E6E380E0F6E1A0E1D61F1
:10FE8C001200010E0E6EDE0E0F6E12000EC010F080
:10FE9C000FC011F0039011361046000E102211C045
:10FEAC0078FF10C079FF1200420E016E000E006E3A
:10FEBC0011C003F010C003F0C7ECFFF005C008F050
:10FECC00056A0A0E016E000E006E0750036E065096
:10FEDC00026EC7ECFFF005C009F0056A0750036E0F
:10FEEC000650026EC7ECFFF005C00AF0056A075019
:10FEFC00036E0650026EC7ECFFF005C00BF0056AEE
:10FF0C00084608460846084409240C6E0A460A4668
:10FF1C000A460A440B240D6E12008A0E016E410E25
:10FF2C00006E11C003F010C003F0C7ECFFF004C06A
:10FF3C0008F0046A0A0E016E0550006E0650026E3F
:10FF4C000750036EE4ECFFF00650026EC7ECFFF0B6
:10FF5C0005C00AF0056A0750036E0650026EC7EC26
:10FF6C00FFF005C00BF0056A084608460846084431
:10FF7C0009240C6E0A460A460A460A440B240D6EE6
:10FF8C00120001510303F4CF06F0F3CF07F0005138
:10FF9C000203F4CF04F0F3CF05F001510203F35048
:10FFAC000627F4500523E86A042300510303F35099
:10FFBC000627F4500523E86A04231200046B056B32
:10FFCC00066B076B039001500303F4CF06F0F3CFDD
:10FFDC0007F001500203F350062603B0052AF45033
:10FFEC00052601500003F350052603B0042AF450F3
:04FFFC0004261200C5
:020000040030CA
:0700000015137F00B98B917D
:06000800FFC0FFE0FF4015
:00000001FF
