:1000000002EF00F07F9C7F8E77EFFDF091ECFDF02A
:10001000D3ECFDF0968A84ECFDF00FEF00F096EC47
:10002000FDF0CCECFEF0E1ECFEF0640E3FECFDF0F8
:04003000F6D71200ED
:020000040001F9
:10FA1000506572696F643A200A004D6963726F74B1
:10FA20006F6E65210A0050656E7461746F6E65219A
:10FA30000A00596F21436D616A6F72210A0001DE6D
:10FA400001FA0238027E02CC02F6035303BC03F42F
:10FA5000047004FC059805ED06A70777077701C237
:10FA600001FA0238025902A302F60353038503F494
:10FA7000047004B3054705EC06A6070B070B1D6EC3
:10FA8000FA0E46ECFDF01D2EFBD712001B6E1B3A42
:10FA90000F0E1B141C6EF00E1B1661ECFDF0120015
:10FAA0001B6E0000000000000000000000000000CD
:10FAB0000000000000000000000000001B06F1E252
:10FAC0001200000E1B061C5AFDE21200040E6E6EA0
:10FAD000B698B798B8882C9F2C9D968ACD90CF6AFF
:10FAE000CE6A570ECD6EB688F28EF28C1200B7A297
:10FAF0001100B79283CF21F0000E8362836A000E5B
:10FB0000216414C083FF1100310ECD6E2C930B0EB7
:10FB1000776EE00E786E080E796EB682F28EF28CF9
:10FB20001200000E976E000E996E1200000E966E77
:10FB3000010E846E010E46ECFDF0000E846E010E87
:10FB4000966EBC0E46ECFDF0BBECFDF015C013F05C
:10FB5000000E9A6E010E886E010E46ECFDF0000E4E
:10FB6000886E010E9A6EBC0E46ECFDF0C7ECFDF0FF
:10FB700016C014F01200000E156E15C085FF154E4C
:10FB80001200020E46ECFDF084B0F7D71200500EC2
:10FB9000166E16C087FF164E1200020E46ECFDF0E0
:10FBA00088B0F7D712007F9C7F8E34ECFEF01200F5
:10FBB00030ECFEF004EE00F0010EF86EFA0EF76E77
:10FBC000100EF66E0A0E1E6E28ECFEF01CECFEF017
:10FBD0000C50B3ECFEF00D50B3ECFEF0120004EE4E
:10FBE00000F0010EF86EFA0EF76E1A0EF66E0B0E9E
:10FBF0001E6E2CECFEF01CECFEF0120004EE00F089
:10FC0000010EF86EFA0EF76E260EF66E0B0E1E6ED5
:10FC10002CECFEF01CECFEF0120004EE00F0010EE5
:10FC2000F86EFA0EF76E320EF66E0B0E1E6E2CECA0
:10FC3000FEF01CECFEF012000900F5CFEEFF1E2EC8
:10FC4000FBD70B0EFF0F24EE00F065ECFEF0120068
:10FC5000000E5FECFEF01200C00E5FECFEF0120032
:10FC6000010E5FECFEF012008A6AC00E936E280E41
:10FC70009DECFEF0300E6CECFEF00A0EA4ECFEF0F3
:10FC8000280E6CECFEF00A0EA4ECFEF0280E6CECD4
:10FC9000FEF00A0EA4ECFEF00F0E6CECFEF00A0E65
:10FCA000A4ECFEF0010E6CECFEF0020E9DECFEF0FA
:10FCB000060E6CECFEF00A0EA4ECFEF012006CECEA
:10FCC000FEF0020E9DECFEF01200126EDE507AEC99
:10FCD000FEF0122EFBD71200116E11380F0B8A6E38
:10FCE0008A988BECFEF011500F0B8A6E8A988BEC81
:10FCF000FEF01200116E11380F0B8A6E8A888BECA1
:10FD0000FEF011500F0B8A6E8A888BECFEF00A0E03
:10FD1000A4ECFEF012000000000000000000000053
:10FD20000000000000008A8A0000000000000000BF
:10FD30000000000000008A9A1200106EFA0EA4EC77
:10FD4000FEF0102EFBD712000E6E0E3A0F0E0E14A0
:10FD50000F6EF00E0E16AEECFEF01200000E0E0648
:10FD60000F5AFDE21200206E2038B8ECFEF0205051
:10FD70000F0B116E0A0E1160070F260F11247AEC7B
:10FD8000FEF01200000E956E000E936E030E946E40
:10FD9000FF0E136E146E120082A0EFECFEF082A034
:10FDA000EFECFDF082A0120082A2FAECFEF082A23B
:10FDB0000DECFEF082A212000FECFFF0FEECFDF065
:10FDC000120017C019F018C01AF003901A3619461D
:10FDD000000E19221AC078FF19C079FF1200060E12
:10FDE0001302DE0EF326010EF422F4CF17F0F3CF48
:10FDF00018F01200010EF86EFA0EF76E3E0EF66E57
:10FE0000133A0F0E13161344F626000EF722F822AB
:10FE10000900F5CF17F00800F5CF18F01200070E13
:10FE2000176E770E186EE90E13601200060E176E2D
:10FE3000A70E186ED20E13601200050E176EED0E8F
:10FE4000186EBB0E13601200040E176EFC0E186EB7
:10FE5000A40E13601200040E176E700E186E8D0E35
:10FE600013601200030E176EBC0E186E760E136030
:10FE70001200030E176E530E186E5F0E1360120001
:10FE8000020E176EF60E186E480E13601200020E68
:10FE9000176E7E0E186E310E13601200020E176E72
:10FEA000380E186E1A0E13601200010E176EDE0E59
:10FEB000186E1200420E016E000E006E1AC003F0A2
:10FEC00019C003F0C7ECFFF005C008F0056A0A0E80
:10FED000016E000E006E0750036E0650026EC7ECF6
:10FEE000FFF005C009F0056A0750036E0650026E68
:10FEF000C7ECFFF005C00AF0056A0750036E065014
:10FF0000026EC7ECFFF005C00BF0056A0846084614
:10FF10000846084409240C6E0A460A460A460A4462
:10FF20000B240D6E12008A0E016E410E006E1AC077
:10FF300003F019C003F0C7ECFFF004C008F0046A36
:10FF40000A0E016E0550006E0650026E0750036ED9
:10FF5000E4ECFFF00650026EC7ECFFF005C00AF0BB
:10FF6000056A0750036E0650026EC7ECFFF005C02D
:10FF70000BF0056A084608460846084409240C6E3A
:10FF80000A460A460A460A440B240D6E1200015026
:10FF90000302F4CF06F0F3CF07F000500202F4CFD3
:10FFA00004F0F3CF05F001500202F3500626F4509E
:10FFB0000522E86A042200500302F3500626F4509A
:10FFC0000522E86A04221200046A056A066A076AC2
:10FFD000039001500302F4CF06F0F3CF07F0015075
:10FFE0000202F350062603B0052AF45005260150FC
:10FFF0000002F350052603B0042AF4500426120030
:020000040030CA
:0700000015137F00B98B917D
:06000800FFC0FFE0FF4015
:00000001FF
