:0400000080EF00F09D
:100100007F9C7F8E4CECFFF018ECFFF0000E936E9E
:100110008AEF00F01CECFFF05BECFFF062ECFFF00C
:04012000F9D71200F9
:020000040001F9
:10FDF0000B6E0B3A0F0E0B140C6EF00E0B1613EC71
:10FE0000FFF012000B6E0000000000000000000078
:10FE100000000000000000000000000000000000E2
:10FE20000B06F1E21200000E0B060C5AFDE2120066
:10FE3000000E976E000E996E000E966E000E9A6E72
:10FE4000010E846E010E886E010EF8ECFEF0000EBD
:10FE5000846E000E886E010E966E010E9A6E34EC62
:10FE6000FFF040ECFFF01200000E006E00C085FFB6
:10FE7000002A060EF8ECFEF0000E8462F7D712009E
:10FE8000000E016E01C087FF012A060EF8ECFEF09D
:10FE9000000E8862F7D71200000E956E1200010E58
:10FEA000836E0A0E02ECFFF0000E836E0A0E02EC67
:10FEB000FFF0F5D71200060E0003DE0EF326010E4A
:10FEC000F4221200F4CF02F0F3CF04F00A0E056E14
:10FED000010E836E79ECFFF0045002ECFFF0000E8F
:10FEE000836E79ECFFF0045002ECFFF0052EF0D7A2
:10FEF000120002C003F0400EF8ECFEF0032EFBD718
:10FF000012008A6AC00E936E280EEAECFFF0300EE3
:10FF1000B9ECFFF00A0EF1ECFFF0280EB9ECFFF09F
:10FF20000A0EF1ECFFF0280EB9ECFFF00A0EF1EC2E
:10FF3000FFF00F0EB9ECFFF00A0EF1ECFFF0010E2E
:10FF4000B9ECFFF0020EEAECFFF0060EB9ECFFF0A0
:10FF50000A0EF1ECFFF01200B9ECFFF0020EEAEC31
:10FF6000FFF012000A6EDE50C7ECFFF00A2EFBD73E
:10FF70001200096E09380F0B8A6E8A98D8ECFFF0D0
:10FF800009500F0B8A6E8A98D8ECFFF01200096EA8
:10FF900009380F0B8A6E8A88D8ECFFF009500F0BD6
:10FFA0008A6E8A88D8ECFFF00A0EF1ECFFF012009E
:10FFB0000000000000000000000000000000000041
:10FFC0008A8A00000000000000000000000000001D
:10FFD0008A9A1200086EFA0EF1ECFFF0082EFBD799
:10FFE0001200066E063A0F0E0614076EF00E061685
:10FFF000FBECFFF01200000E0606075AFDE21200AD
:020000040030CA
:0700000015137F00B98B917D
:06000800FFC0FFE0FF4015
:00000001FF
