:0400000080EF00F09D
:100100007F9C7F8E67ECFFF0A8ECFEF088EF00F09C
:10011000ADECFEF07CECFFF0B5ECFFF08FECFFF007
:04012000F7D71200FB
:020000040001F9
:10FCD60001510303F4CF06F0F3CF07F000510203FE
:10FCE600F4CF04F0F3CF05F001510203F3500627D9
:10FCF600F4500523E86A042300510303F350062752
:10FD0600F4500523E86A04231200166E163A0F0E05
:10FD16001614176EF00E1616A3ECFEF01200166EF1
:10FD260000000000000000000000000000000000CD
:10FD3600000000000000000000001606F1E21200BC
:10FD4600000E1606175AFDE21200000E976E000E00
:10FD5600996E1200000E966E010E846E010E88ECEE
:10FD6600FEF0000E846E010E966EBC0E88ECFEF060
:10FD7600CEECFEF0000E9A6E010E886E010E88EC37
:10FD8600FEF0000E886E010E9A6EBC0E88ECFEF038
:10FD9600DBECFEF01200000E146E14C085FF144E4C
:10FDA6001200020E88ECFEF0000E8462F6D71200F6
:10FDB600000E156E15C087FF154E1200020E88EC58
:10FDC600FEF0000E8862F6D712008A6AC00E936EA5
:10FDD600280E51ECFFF0300E20ECFFF00A0E58EC26
:10FDE600FFF0280E20ECFFF00A0E58ECFFF0280E6C
:10FDF60020ECFFF00A0E58ECFFF00F0E20ECFFF09F
:10FE06000A0E58ECFFF0010E20ECFFF0020E51EC4A
:10FE1600FFF0060E20ECFFF00A0E58ECFFF0120081
:10FE260020ECFFF0020E51ECFFF01200136EDE50D4
:10FE36002EECFFF0132EFBD71200126E12380F0BAA
:10FE46008A6E8A983FECFFF012500F0B8A6E8A98E2
:10FE56003FECFFF01200126E12380F0B8A6E8A8882
:10FE66003FECFFF012500F0B8A6E8A883FECFFF0D2
:10FE76000A0E58ECFFF0120000000000000000001F
:10FE860000000000000000008A8A00000000000058
:10FE960000000000000000008A9A1200116EFA0E9F
:10FEA60058ECFFF0112EFBD712000F6E0F3A0F0E13
:10FEB6000F14106EF00E0F1662ECFFF01200000E1B
:10FEC6000F06105AFDE21200000E956E000E0B6F23
:10FED600000E0C6F000E936E1200010E836E0A0E5A
:10FEE60092ECFEF0000E836E0A0E92ECFEF0F5D751
:10FEF6001200060E1403DE0EF326010EF422F4CFD2
:10FF060008F0F3CF09F0120015C087FF12000BC0EE
:10FF160005F00CC006F012008AECFFF01E0E0C6F06
:10FF2600010E836EADECFFF0095092ECFEF0000E70
:10FF3600836EADECFFF0095092ECFEF00C2EF0D77C
:10FF46001200062EEDD7000E056312000506800E80
:10FF5600066EE6D708C00AF0400E88ECFEF00A2EC0
:10FF6600FBD71200070E086E770E096EE90E1461B4
:10FF76001200060E086EA70E096ED20E146112004C
:10FF8600050E086EED0E096EBB0E14611200040E0E
:10FF9600086EFC0E096EA40E14611200040E086EA3
:10FFA600700E096E8D0E14611200030E086EBC0EE3
:10FFB600096E760E14611200030E086E530E096E5A
:10FFC6005F0E14611200020E086EF60E096E480EE0
:10FFD60014611200020E086E7E0E096E310E146157
:10FFE6001200020E086E380E096E1A0E1461120007
:0AFFF600010E086EDE0E096E120007
:020000040030CA
:0700000015137F00B98B917D
:06000800FFC0FFE0FF4015
:00000001FF
