:0400000080EF00F09D
:100100007F9C7F8E57ECFFF0AAECFEF088EF00F0AA
:10011000AFECFEF06CECFFF0C2ECFFF0DEECFFF0B9
:04012000F7D71200FB
:020000040001F9
:10FCDA0001510303F4CF06F0F3CF07F000510203FA
:10FCEA00F4CF04F0F3CF05F001510203F3500627D5
:10FCFA00F4500523E86A042300510303F35006274E
:10FD0A00F4500523E86A04231200166E163A0F0E01
:10FD1A001614176EF00E1616A5ECFEF01200166EEB
:10FD2A0000000000000000000000000000000000C9
:10FD3A00000000000000000000001606F1E21200B8
:10FD4A00000E1606175AFDE21200000E976E000EFC
:10FD5A00996E1200000E966E010E846E010E8AECE8
:10FD6A00FEF0000E846E010E966EBC0E8AECFEF05A
:10FD7A00C0ECFEF01200000E146E14C085FF144E83
:10FD8A001200020E8AECFEF0000E8462F6D7120010
:10FD9A00000E156E154E1200020E8AECFEF0000ED1
:10FDAA008862F8D712008A6AC00E936E280E41EC58
:10FDBA00FFF0300E10ECFFF00A0E48ECFFF0280EB0
:10FDCA0010ECFFF00A0E48ECFFF0280E10ECFFF0E2
:10FDDA000A0E48ECFFF00F0E10ECFFF00A0E48EC8A
:10FDEA00FFF0010E10ECFFF0020E41ECFFF0060EE0
:10FDFA0010ECFFF00A0E48ECFFF0120010ECFFF0D6
:10FE0A00020E41ECFFF01200136EDE501EECFFF002
:10FE1A00132EFBD71200126E12380F0B8A6E8A98B5
:10FE2A002FECFFF012500F0B8A6E8A982FECFFF01E
:10FE3A001200126E12380F0B8A6E8A882FECFFF0AE
:10FE4A0012500F0B8A6E8A882FECFFF00A0E48ECCC
:10FE5A00FFF0120000000000000000000000000097
:10FE6A00000000008A8A0000000000000000000074
:10FE7A00000000008A9A1200116EFA0E48ECFFF098
:10FE8A00112EFBD712000F6E0F3A0F0E0F14106EC1
:10FE9A00F00E0F1652ECFFF01200000E0F06105A69
:10FEAA00FDE21200000E956E010E0B6F000E0C6F34
:10FEBA00000E936E1200010E836E0A0E94ECFEF091
:10FECA00000E836E0A0E94ECFEF0F5D71200060EB1
:10FEDA001403DE0EF326010EF422F4CF08F0F3CF5A
:10FEEA0009F01200070E086E770E096EE90E14610A
:10FEFA001200060E086EA70E096ED20E14611200C9
:10FF0A00050E086EED0E096EBB0E14611200040E8A
:10FF1A00086EFC0E096EA40E14611200040E086E1F
:10FF2A00700E096E8D0E14611200030E086EBC0E5F
:10FF3A00096E760E14611200030E086E530E096ED6
:10FF4A005F0E14611200020E086EF60E096E480E5C
:10FF5A0014611200020E086E7E0E096E310E1461D3
:10FF6A001200020E086E380E096E1A0E1461120083
:10FF7A00010E086EDE0E096E1200FF0E876E120069
:10FF8A0008C000F009C001F01B0E036F000E026FDB
:10FF9A006DECFEF00CC00EF00BC00DF006500E5EBC
:10FFAA0005500D5A0DC005F00EC006F00EC081FFB7
:10FFBA001200C5ECFFF0010E836EF8ECFFF0095059
:10FFCA0094ECFEF0000E836EF8ECFFF0095094EC0E
:10FFDA00FEF0062EF0D7000E056312000506800E0D
:10FFEA00066EE9D7120008C00AF0400E8AECFEF04D
:06FFFA000A2EFBD71200E5
:020000040030CA
:0700000015137F00B98B917D
:06000800FFC0FFE0FF4015
:00000001FF
