:0400000080EF00F09D
:040008008BEFFEF08C
:100100007F9C7F8E69ECFFF0A7ECFEF0000E976EEF
:10011000968A9AECFEF08DEF00F0ADECFEF077ECF5
:0A012000FFF0F2ECFFF0F9D7120037
:020000040001F9
:10FC5A0001DE01FA0238027E02CC02F6035303BC2B
:10FC6A0003F4047004FC059805ED06A707770777E7
:10FC7A000B510D03F4CF10F0F3CF11F00A510C031E
:10FC8A00F4CF0EF0F3CF0FF00B510C03F350102703
:10FC9A00F4500F23E86A0E230A510D03F35010277C
:10FCAA00F4500F23E86A0E2312001B6E1B3A0F0E44
:10FCBA001B141C6EF00E1B1675ECFEF012001B6E68
:10FCCA00000000000000000000000000000000002A
:10FCDA00000000000000000000001B06F1E2120014
:10FCEA00000E1B061C5AFDE21200040E6E6EB69838
:10FCFA00B798B8882C9F2C9D968ACD90CF6ACE6AE9
:10FD0A00570ECD6EB688F28EF28C1200B7A2110091
:10FD1A00B7928288829883CF1DF0000E8362836A2D
:10FD2A00000E1D6418C083FF1100310ECD6E2C9396
:10FD3A000B0E776EE00E786E080E796EB682F28E32
:10FD4A00F28C1200000E976E000E9A6E000E996EDB
:10FD5A00000E966E010E846E010E5AECFEF0000E35
:10FD6A00846E010E966EBC0E5AECFEF0D2ECFEF0DA
:10FD7A0019C017F0000E9A6E010E886E010E5AEC29
:10FD8A00FEF0000E886E010E9A6EBC0E5AECFEF062
:10FD9A00DEECFEF01AC018F01200000E196E19C03F
:10FDAA0085FF194E1200020E5AECFEF084B0F7D706
:10FDBA001200500E1A6E1AC087FF1A4E1200020E57
:10FDCA005AECFEF088B0F7D712008A6AC00E936E1A
:10FDDA00280E53ECFFF0300E22ECFFF00A0E5AEC1C
:10FDEA00FFF0280E22ECFFF00A0E5AECFFF0280E64
:10FDFA0022ECFFF00A0E5AECFFF00F0E22ECFFF095
:10FE0A000A0E5AECFFF0010E22ECFFF0020E53EC40
:10FE1A00FFF0060E22ECFFF00A0E5AECFFF0120079
:10FE2A0022ECFFF0020E53ECFFF01200166EDE50C9
:10FE3A0030ECFFF0162EFBD71200156E15380F0B9B
:10FE4A008A6E8A9841ECFFF015500F0B8A6E8A98D9
:10FE5A0041ECFFF01200156E15380F0B8A6E8A8876
:10FE6A0041ECFFF015500F0B8A6E8A8841ECFFF0C7
:10FE7A000A0E5AECFFF01200000000000000000019
:10FE8A0000000000000000008A8A00000000000054
:10FE9A0000000000000000008A9A1200146EFA0E98
:10FEAA005AECFFF0142EFBD71200126E123A0F0E04
:10FEBA001214136EF00E121664ECFFF01200000E0C
:10FECA001206135AFDE21200000E956E000E056E20
:10FEDA00000E066E000E936E030E946EFF0E176FE1
:10FEEA00186F120082A084ECFFF082A0120082A296
:10FEFA0096ECFFF082A21200A7ECFFF01200060EA9
:10FF0A001703DE0EF326010EF422F4CF00F0F3CF2E
:10FF1A0001F01200010EF86EFC0EF76E5A0EF66E24
:10FF2A0012008FECFFF0173A0F0E17161744F62639
:10FF3A00000EF722F8220900F5CF00F00800F5CFED
:10FF4A0001F01200070E006E770E016EE90E1761BE
:10FF5A001200060E006EA70E016ED20E1761120075
:10FF6A00050E006EED0E016EBB0E17611200040E37
:10FF7A00006EFC0E016EA40E17611200040E006ED4
:10FF8A00700E016E8D0E17611200030E006EBC0E0C
:10FF9A00016E760E17611200030E006E530E016E8B
:10FFAA005F0E17611200020E006EF60E016E480E09
:10FFBA0017611200020E006E7E0E016E310E17617D
:10FFCA001200020E006E380E016E1A0E1761120030
:10FFDA00010E006EDE0E016E120000C002F001C0BA
:10FFEA0003F0039003360246000E022203C078FF94
:06FFFA0002C079FF1200B5
:020000040030CA
:0700000015137F00B98B917D
:06000800FFC0FFE0FF4015
:00000001FF
