:0400000080EF00F09D
:100100007F9C7F8E33ECFFF0F5ECFEF088EF00F083
:10011000FAECFEF042ECFFF04DECFFF05FECFFF08C
:04012000F7D71200FB
:020000040001F9
:10FD700001510303F4CF06F0F3CF07F00051020363
:10FD8000F4CF04F0F3CF05F001510203F35006273E
:10FD9000F4500523E86A042300510303F3500627B7
:10FDA000F4500523E86A04231200146E143A0F0E6F
:10FDB0001414156EF00E1416F0ECFEF01200146E12
:10FDC0000000000000000000000000000000000033
:10FDD000000000000000000000001406F1E2120024
:10FDE000000E1406155AFDE21200000E976E000E6A
:10FDF000996E1200000E966E010E846E010ED5EC07
:10FE0000FEF0000E846E010E966EBC0ED5ECFEF078
:10FE10001BECFFF0000E9A6E010E886E010ED5EC01
:10FE2000FEF0000E886E010E9A6EBC0ED5ECFEF050
:10FE300028ECFFF01200000E126E12C085FF124E69
:10FE40001200020ED5ECFEF0000E8462F6D712000E
:10FE5000000E136E134E1200020ED5ECFEF0000ED3
:10FE60008862F8D71200000E956E1200010E836EA4
:10FE70000A0EDFECFEF0000E836E0A0EDFECFEF0E1
:10FE8000F5D71200060E1203DE0EF326010EF42241
:10FE9000F4CF08F0F3CF09F0120013C087FF12006F
:10FEA00008C000F009C001F02B0E036F000E026FB6
:10FEB000B8ECFEF0AB0E0626010E05221200320E43
:10FEC0000B6E010E836E79ECFFF00950DFECFEF053
:10FED000000E836E79ECFFF00950DFECFEF0062E89
:10FEE000F0D7000E056312000506000E066EE9D776
:10FEF000120008C00AF0400ED5ECFEF00A2EFBD727
:10FF000012008A6AC00E936E280EEAECFFF0300EE3
:10FF1000B9ECFFF00A0EF1ECFFF0280EB9ECFFF09F
:10FF20000A0EF1ECFFF0280EB9ECFFF00A0EF1EC2E
:10FF3000FFF00F0EB9ECFFF00A0EF1ECFFF0010E2E
:10FF4000B9ECFFF0020EEAECFFF0060EB9ECFFF0A0
:10FF50000A0EF1ECFFF01200B9ECFFF0020EEAEC31
:10FF6000FFF01200116EDE50C7ECFFF0112EFBD730
:10FF70001200106E10380F0B8A6E8A98D8ECFFF0C2
:10FF800010500F0B8A6E8A98D8ECFFF01200106E9A
:10FF900010380F0B8A6E8A88D8ECFFF010500F0BC8
:10FFA0008A6E8A88D8ECFFF00A0EF1ECFFF012009E
:10FFB0000000000000000000000000000000000041
:10FFC0008A8A00000000000000000000000000001D
:10FFD0008A9A12000F6EFA0EF1ECFFF00F2EFBD78B
:10FFE00012000D6E0D3A0F0E0D140E6EF00E0D1662
:10FFF000FBECFFF01200000E0D060E5AFDE212009F
:020000040030CA
:0700000015137F00B98B917D
:06000800FFC0FFE0FF4015
:00000001FF
