:0400000080EF00F09D
:100100007F9C7F8E000E966E000E976E000E9A6E8C
:10011000000E996E90EF00F0C10EACECFFF01200F3
:10012000010E846E856E010EA3EC00F0000E846E4D
:10013000856E010E966E976EB2EC00F0BEEC00F08C
:10014000FA0EA3EC00F0056E053A0F0E0514066ECC
:10015000F00E0516ADEC00F01200000E0506065A72
:10016000FDE21200000E076E07C087FF072A060E89
:10017000A3EC00F0000E8462F7D71200000E076EA9
:1001800007C088FF072A060EA3EC00F0000E846269
:04019000F7D712008B
:020000040001F9
:10FF02008A6AC00E936E280EEAECFFF0300EB9EC4E
:10FF1200FFF00A0EF1ECFFF0280EB9ECFFF00A0E2A
:10FF2200F1ECFFF0280EB9ECFFF00A0EF1ECFFF055
:10FF32000F0EB9ECFFF00A0EF1ECFFF0010EB9EC76
:10FF4200FFF0020EEAECFFF0060EB9ECFFF00A0E2B
:10FF5200F1ECFFF01200B9ECFFF0020EEAECFFF058
:10FF62001200046EDE50C7ECFFF0042EFBD7120025
:10FF7200036E03380F0B8A6E8A98D8ECFFF0035099
:10FF82000F0B8A6E8A98D8ECFFF01200036E0338CA
:10FF92000F0B8A6E8A88D8ECFFF003500F0B8A6E23
:10FFA2008A88D8ECFFF00A0EF1ECFFF01200000094
:10FFB20000000000000000000000000000008A8A2B
:10FFC20000000000000000000000000000008A9A0B
:10FFD2001200026EFA0EF1ECFFF0022EFBD71200B5
:10FFE200006E003A0F0E0014016EF00E0016FBECCC
:0EFFF200FFF01200000E0006015AFDE21200A0
:020000040030CA
:0700000015137F00B98B917D
:06000800FFC0FFE0FF4015
:00000001FF
