:10000000000E956E05EC00F01200010E836EFA0EE4
:100010000AEC00F0000E836EFA0E0AEC00F0F5D741
:10002000120014EC00F01200000E0506065AFDE264
:020030001200BC
:100100007F9C7F8E00EC00F0000E976E000E9A6EC2
:100110008AEF00F0000E966E000E996E010E846E4E
:10012000010E876E010E00EC00F0000E846E000ED2
:10013000876E010E966E010E996EA4EC00F0B0EC85
:1001400000F0FA0E00EC00F0000E076E07C085FF0D
:10015000072A060E00EC00F0000E8462F7D71200AA
:10016000000E086E08C088FF082A060E00EC00F09A
:08017000000E8762F7D71200B0
:020000040001F9
:10FF02008A6AC00E936E280EEAECFFF0300EB9EC4E
:10FF1200FFF00A0EF1ECFFF0280EB9ECFFF00A0E2A
:10FF2200F1ECFFF0280EB9ECFFF00A0EF1ECFFF055
:10FF32000F0EB9ECFFF00A0EF1ECFFF0010EB9EC76
:10FF4200FFF0020EEAECFFF0060EB9ECFFF00A0E2B
:10FF5200F1ECFFF01200B9ECFFF0020EEAECFFF058
:10FF62001200046EDE50C7ECFFF0042EFBD7120025
:10FF7200036E03380F0B8A6E8A98D8ECFFF0035099
:10FF82000F0B8A6E8A98D8ECFFF01200036E0338CA
:10FF92000F0B8A6E8A88D8ECFFF003500F0B8A6E23
:10FFA2008A88D8ECFFF00A0EF1ECFFF01200000094
:10FFB20000000000000000000000000000008A8A2B
:10FFC20000000000000000000000000000008A9A0B
:10FFD2001200026EFA0EF1ECFFF0022EFBD71200B5
:10FFE200006E003A0F0E0014016EF00E0016FBECCC
:0EFFF200FFF01200000E0006015AFDE21200A0
:020000040030CA
:0700000015137F00B98B917D
:06000800FFC0FFE0FF4015
:00000001FF
